{
  "contractName": "UtopiaStopLossRouter",
  "abi": [
    {
      "inputs": [],
      "stateMutability": "nonpayable",
      "type": "constructor"
    },
    {
      "anonymous": false,
      "inputs": [
        {
          "indexed": true,
          "internalType": "address",
          "name": "previousOwner",
          "type": "address"
        },
        {
          "indexed": true,
          "internalType": "address",
          "name": "newOwner",
          "type": "address"
        }
      ],
      "name": "OwnershipTransferred",
      "type": "event"
    },
    {
      "inputs": [],
      "name": "WBNB",
      "outputs": [
        {
          "internalType": "address",
          "name": "",
          "type": "address"
        }
      ],
      "stateMutability": "view",
      "type": "function",
      "constant": true
    },
    {
      "inputs": [
        {
          "internalType": "address",
          "name": "addressToAdd",
          "type": "address"
        }
      ],
      "name": "addAuthorized",
      "outputs": [],
      "stateMutability": "nonpayable",
      "type": "function"
    },
    {
      "inputs": [
        {
          "internalType": "address",
          "name": "_address",
          "type": "address"
        }
      ],
      "name": "checkAuthorized",
      "outputs": [
        {
          "internalType": "bool",
          "name": "",
          "type": "bool"
        }
      ],
      "stateMutability": "view",
      "type": "function",
      "constant": true
    },
    {
      "inputs": [],
      "name": "firstOwner",
      "outputs": [
        {
          "internalType": "address",
          "name": "",
          "type": "address"
        }
      ],
      "stateMutability": "view",
      "type": "function",
      "constant": true
    },
    {
      "inputs": [],
      "name": "geUnlockTime",
      "outputs": [
        {
          "internalType": "uint256",
          "name": "",
          "type": "uint256"
        }
      ],
      "stateMutability": "view",
      "type": "function",
      "constant": true
    },
    {
      "inputs": [
        {
          "internalType": "uint256",
          "name": "time",
          "type": "uint256"
        }
      ],
      "name": "lock",
      "outputs": [],
      "stateMutability": "nonpayable",
      "type": "function"
    },
    {
      "inputs": [],
      "name": "owner",
      "outputs": [
        {
          "internalType": "address",
          "name": "",
          "type": "address"
        }
      ],
      "stateMutability": "view",
      "type": "function",
      "constant": true
    },
    {
      "inputs": [],
      "name": "pancakeswapRouterV2",
      "outputs": [
        {
          "internalType": "contract IPancakeRouter02",
          "name": "",
          "type": "address"
        }
      ],
      "stateMutability": "view",
      "type": "function",
      "constant": true
    },
    {
      "inputs": [],
      "name": "pancakeswapRouterV2Address",
      "outputs": [
        {
          "internalType": "address",
          "name": "",
          "type": "address"
        }
      ],
      "stateMutability": "view",
      "type": "function",
      "constant": true
    },
    {
      "inputs": [
        {
          "internalType": "address",
          "name": "addressToRemove",
          "type": "address"
        }
      ],
      "name": "removeAuthorized",
      "outputs": [],
      "stateMutability": "nonpayable",
      "type": "function"
    },
    {
      "inputs": [],
      "name": "renounceOwnership",
      "outputs": [],
      "stateMutability": "nonpayable",
      "type": "function"
    },
    {
      "inputs": [
        {
          "internalType": "address",
          "name": "newOwner",
          "type": "address"
        }
      ],
      "name": "transferOwnership",
      "outputs": [],
      "stateMutability": "nonpayable",
      "type": "function"
    },
    {
      "inputs": [],
      "name": "unlock",
      "outputs": [],
      "stateMutability": "nonpayable",
      "type": "function"
    },
    {
      "inputs": [
        {
          "internalType": "address",
          "name": "owner",
          "type": "address"
        },
        {
          "internalType": "address",
          "name": "tokenIn",
          "type": "address"
        },
        {
          "internalType": "uint256",
          "name": "amountIn",
          "type": "uint256"
        },
        {
          "internalType": "uint256",
          "name": "amountInAfterTransferTax",
          "type": "uint256"
        },
        {
          "internalType": "uint256",
          "name": "minAmountOut",
          "type": "uint256"
        },
        {
          "internalType": "uint256",
          "name": "deadline",
          "type": "uint256"
        }
      ],
      "name": "makeTokenBnbSwap",
      "outputs": [],
      "stateMutability": "nonpayable",
      "type": "function"
    },
    {
      "inputs": [
        {
          "internalType": "address",
          "name": "token",
          "type": "address"
        }
      ],
      "name": "withdrawBadTx",
      "outputs": [],
      "stateMutability": "nonpayable",
      "type": "function"
    }
  ],
  "bytecode": "0x60806040527310ed43c718714eb63d5aa57b78b54704e256024e600560006101000a81548173ffffffffffffffffffffffffffffffffffffffff021916908373ffffffffffffffffffffffffffffffffffffffff16021790555034801561006557600080fd5b5060006100766101df60201b60201c565b9050806000806101000a81548173ffffffffffffffffffffffffffffffffffffffff021916908373ffffffffffffffffffffffffffffffffffffffff16021790555060008054906101000a900473ffffffffffffffffffffffffffffffffffffffff16600260006101000a81548173ffffffffffffffffffffffffffffffffffffffff021916908373ffffffffffffffffffffffffffffffffffffffff16021790555060016004600061012d6101df60201b60201c565b73ffffffffffffffffffffffffffffffffffffffff1673ffffffffffffffffffffffffffffffffffffffff16815260200190815260200160002060006101000a81548160ff0219169083151502179055508073ffffffffffffffffffffffffffffffffffffffff16600073ffffffffffffffffffffffffffffffffffffffff167f8be0079c531659141344cd1fd0a4f28419497f9722a3daafe3b4186f6b6457e060405160405180910390a3506101e7565b600033905090565b611b79806101f66000396000f3fe608060405234801561001057600080fd5b50600436106100f55760003560e01c8063a69df4b511610097578063dd46706411610066578063dd467064146102fc578063e3055f8e1461032a578063e7389a5914610384578063f2fde38b14610410576100f5565b8063a69df4b51461024c578063b6c5232414610256578063cf1c316a14610274578063d747821c146102b8576100f5565b80636bc28781116100d35780636bc28781146101a6578063715018a6146101da5780638da5cb5b146101e45780638dd9500214610218576100f5565b806301069692146100fa578063108bc44c1461012e578063485d7d9414610162575b600080fd5b610102610454565b604051808273ffffffffffffffffffffffffffffffffffffffff16815260200191505060405180910390f35b61013661047a565b604051808273ffffffffffffffffffffffffffffffffffffffff16815260200191505060405180910390f35b6101a46004803603602081101561017857600080fd5b81019080803573ffffffffffffffffffffffffffffffffffffffff169060200190929190505050610492565b005b6101ae61060e565b604051808273ffffffffffffffffffffffffffffffffffffffff16815260200191505060405180910390f35b6101e2610638565b005b6101ec6107be565b604051808273ffffffffffffffffffffffffffffffffffffffff16815260200191505060405180910390f35b6102206107e7565b604051808273ffffffffffffffffffffffffffffffffffffffff16815260200191505060405180910390f35b6102546107ff565b005b61025e610a1c565b6040518082815260200191505060405180910390f35b6102b66004803603602081101561028a57600080fd5b81019080803573ffffffffffffffffffffffffffffffffffffffff169060200190929190505050610a26565b005b6102fa600480360360208110156102ce57600080fd5b81019080803573ffffffffffffffffffffffffffffffffffffffff169060200190929190505050610b49565b005b6103286004803603602081101561031257600080fd5b8101908080359060200190929190505050610dbb565b005b61036c6004803603602081101561034057600080fd5b81019080803573ffffffffffffffffffffffffffffffffffffffff169060200190929190505050610fac565b60405180821515815260200191505060405180910390f35b61040e600480360360c081101561039a57600080fd5b81019080803573ffffffffffffffffffffffffffffffffffffffff169060200190929190803573ffffffffffffffffffffffffffffffffffffffff16906020019092919080359060200190929190803590602001909291908035906020019092919080359060200190929190505050611002565b005b6104526004803603602081101561042657600080fd5b81019080803573ffffffffffffffffffffffffffffffffffffffff169060200190929190505050611399565b005b600560009054906101000a900473ffffffffffffffffffffffffffffffffffffffff1681565b7310ed43c718714eb63d5aa57b78b54704e256024e81565b61049a6115a4565b73ffffffffffffffffffffffffffffffffffffffff1660008054906101000a900473ffffffffffffffffffffffffffffffffffffffff1673ffffffffffffffffffffffffffffffffffffffff161461055a576040517f08c379a00000000000000000000000000000000000000000000000000000000081526004018080602001828103825260208152602001807f4f776e61626c653a2063616c6c6572206973206e6f7420746865206f776e657281525060200191505060405180910390fd5b60008054906101000a900473ffffffffffffffffffffffffffffffffffffffff1673ffffffffffffffffffffffffffffffffffffffff168173ffffffffffffffffffffffffffffffffffffffff1614156105b357600080fd5b6000600460008373ffffffffffffffffffffffffffffffffffffffff1673ffffffffffffffffffffffffffffffffffffffff16815260200190815260200160002060006101000a81548160ff02191690831515021790555050565b6000600260009054906101000a900473ffffffffffffffffffffffffffffffffffffffff16905090565b6106406115a4565b73ffffffffffffffffffffffffffffffffffffffff1660008054906101000a900473ffffffffffffffffffffffffffffffffffffffff1673ffffffffffffffffffffffffffffffffffffffff1614610700576040517f08c379a00000000000000000000000000000000000000000000000000000000081526004018080602001828103825260208152602001807f4f776e61626c653a2063616c6c6572206973206e6f7420746865206f776e657281525060200191505060405180910390fd5b600073ffffffffffffffffffffffffffffffffffffffff1660008054906101000a900473ffffffffffffffffffffffffffffffffffffffff1673ffffffffffffffffffffffffffffffffffffffff167f8be0079c531659141344cd1fd0a4f28419497f9722a3daafe3b4186f6b6457e060405160405180910390a360008060006101000a81548173ffffffffffffffffffffffffffffffffffffffff021916908373ffffffffffffffffffffffffffffffffffffffff160217905550565b60008060009054906101000a900473ffffffffffffffffffffffffffffffffffffffff16905090565b73bb4cdb9cbd36b01bd1cbaebf2de08d9173bc095c81565b3373ffffffffffffffffffffffffffffffffffffffff16600160009054906101000a900473ffffffffffffffffffffffffffffffffffffffff1673ffffffffffffffffffffffffffffffffffffffff16146108a5576040517f08c379a0000000000000000000000000000000000000000000000000000000008152600401808060200182810382526023815260200180611b216023913960400191505060405180910390fd5b600354421161091c576040517f08c379a000000000000000000000000000000000000000000000000000000000815260040180806020018281038252601f8152602001807f436f6e7472616374206973206c6f636b656420756e74696c203720646179730081525060200191505060405180910390fd5b600160009054906101000a900473ffffffffffffffffffffffffffffffffffffffff1673ffffffffffffffffffffffffffffffffffffffff1660008054906101000a900473ffffffffffffffffffffffffffffffffffffffff1673ffffffffffffffffffffffffffffffffffffffff167f8be0079c531659141344cd1fd0a4f28419497f9722a3daafe3b4186f6b6457e060405160405180910390a3600160009054906101000a900473ffffffffffffffffffffffffffffffffffffffff166000806101000a81548173ffffffffffffffffffffffffffffffffffffffff021916908373ffffffffffffffffffffffffffffffffffffffff160217905550565b6000600354905090565b610a2e6115a4565b73ffffffffffffffffffffffffffffffffffffffff1660008054906101000a900473ffffffffffffffffffffffffffffffffffffffff1673ffffffffffffffffffffffffffffffffffffffff1614610aee576040517f08c379a00000000000000000000000000000000000000000000000000000000081526004018080602001828103825260208152602001807f4f776e61626c653a2063616c6c6572206973206e6f7420746865206f776e657281525060200191505060405180910390fd5b6001600460008373ffffffffffffffffffffffffffffffffffffffff1673ffffffffffffffffffffffffffffffffffffffff16815260200190815260200160002060006101000a81548160ff02191690831515021790555050565b6001151560046000610b596115a4565b73ffffffffffffffffffffffffffffffffffffffff1673ffffffffffffffffffffffffffffffffffffffff16815260200190815260200160002060009054906101000a900460ff16151514610bf9576040517f08c379a0000000000000000000000000000000000000000000000000000000008152600401808060200182810382526021815260200180611a886021913960400191505060405180910390fd5b8073ffffffffffffffffffffffffffffffffffffffff1663a9059cbb338373ffffffffffffffffffffffffffffffffffffffff166370a08231306040518263ffffffff1660e01b8152600401808273ffffffffffffffffffffffffffffffffffffffff16815260200191505060206040518083038186803b158015610c7d57600080fd5b505afa158015610c91573d6000803e3d6000fd5b505050506040513d6020811015610ca757600080fd5b81019080805190602001909291905050506040518363ffffffff1660e01b8152600401808373ffffffffffffffffffffffffffffffffffffffff16815260200182815260200192505050602060405180830381600087803b158015610d0b57600080fd5b505af1158015610d1f573d6000803e3d6000fd5b505050506040513d6020811015610d3557600080fd5b8101908080519060200190929190505050610db8576040517f08c379a000000000000000000000000000000000000000000000000000000000815260040180806020018281038252600f8152602001807f5472616e73666572206661696c6564000000000000000000000000000000000081525060200191505060405180910390fd5b50565b610dc36115a4565b73ffffffffffffffffffffffffffffffffffffffff1660008054906101000a900473ffffffffffffffffffffffffffffffffffffffff1673ffffffffffffffffffffffffffffffffffffffff1614610e83576040517f08c379a00000000000000000000000000000000000000000000000000000000081526004018080602001828103825260208152602001807f4f776e61626c653a2063616c6c6572206973206e6f7420746865206f776e657281525060200191505060405180910390fd5b60008054906101000a900473ffffffffffffffffffffffffffffffffffffffff16600160006101000a81548173ffffffffffffffffffffffffffffffffffffffff021916908373ffffffffffffffffffffffffffffffffffffffff16021790555060008060006101000a81548173ffffffffffffffffffffffffffffffffffffffff021916908373ffffffffffffffffffffffffffffffffffffffff160217905550804201600381905550600073ffffffffffffffffffffffffffffffffffffffff1660008054906101000a900473ffffffffffffffffffffffffffffffffffffffff1673ffffffffffffffffffffffffffffffffffffffff167f8be0079c531659141344cd1fd0a4f28419497f9722a3daafe3b4186f6b6457e060405160405180910390a350565b6000600460008373ffffffffffffffffffffffffffffffffffffffff1673ffffffffffffffffffffffffffffffffffffffff16815260200190815260200160002060009054906101000a900460ff169050919050565b60011515600460006110126115a4565b73ffffffffffffffffffffffffffffffffffffffff1673ffffffffffffffffffffffffffffffffffffffff16815260200190815260200160002060009054906101000a900460ff161515146110b2576040517f08c379a0000000000000000000000000000000000000000000000000000000008152600401808060200182810382526021815260200180611a886021913960400191505060405180910390fd5b6110be858730876115ac565b6110fd857310ed43c718714eb63d5aa57b78b54704e256024e7fffffffffffffffffffffffffffffffffffffffffffffffffffffffffffffffff611791565b60008673ffffffffffffffffffffffffffffffffffffffff163190506060600267ffffffffffffffff8111801561113357600080fd5b506040519080825280602002602001820160405280156111625781602001602082028036833780820191505090505b509050868160008151811061117357fe5b602002602001019073ffffffffffffffffffffffffffffffffffffffff16908173ffffffffffffffffffffffffffffffffffffffff168152505073bb4cdb9cbd36b01bd1cbaebf2de08d9173bc095c816001815181106111cf57fe5b602002602001019073ffffffffffffffffffffffffffffffffffffffff16908173ffffffffffffffffffffffffffffffffffffffff1681525050600560009054906101000a900473ffffffffffffffffffffffffffffffffffffffff1673ffffffffffffffffffffffffffffffffffffffff1663791ac9478686848c886040518663ffffffff1660e01b815260040180868152602001858152602001806020018473ffffffffffffffffffffffffffffffffffffffff168152602001838152602001828103825285818151815260200191508051906020019060200280838360005b838110156112cc5780820151818401526020810190506112b1565b505050509050019650505050505050600060405180830381600087803b1580156112f557600080fd5b505af1158015611309573d6000803e3d6000fd5b5050505083611338838a73ffffffffffffffffffffffffffffffffffffffff163161195790919063ffffffff16565b101561138f576040517f08c379a000000000000000000000000000000000000000000000000000000000815260040180806020018281038252602a815260200180611aa9602a913960400191505060405180910390fd5b5050505050505050565b6113a16115a4565b73ffffffffffffffffffffffffffffffffffffffff1660008054906101000a900473ffffffffffffffffffffffffffffffffffffffff1673ffffffffffffffffffffffffffffffffffffffff1614611461576040517f08c379a00000000000000000000000000000000000000000000000000000000081526004018080602001828103825260208152602001807f4f776e61626c653a2063616c6c6572206973206e6f7420746865206f776e657281525060200191505060405180910390fd5b600073ffffffffffffffffffffffffffffffffffffffff168173ffffffffffffffffffffffffffffffffffffffff1614156114e7576040517f08c379a0000000000000000000000000000000000000000000000000000000008152600401808060200182810382526026815260200180611a626026913960400191505060405180910390fd5b8073ffffffffffffffffffffffffffffffffffffffff1660008054906101000a900473ffffffffffffffffffffffffffffffffffffffff1673ffffffffffffffffffffffffffffffffffffffff167f8be0079c531659141344cd1fd0a4f28419497f9722a3daafe3b4186f6b6457e060405160405180910390a3806000806101000a81548173ffffffffffffffffffffffffffffffffffffffff021916908373ffffffffffffffffffffffffffffffffffffffff16021790555050565b600033905090565b600060608573ffffffffffffffffffffffffffffffffffffffff166323b872dd868686604051602401808473ffffffffffffffffffffffffffffffffffffffff1681526020018373ffffffffffffffffffffffffffffffffffffffff16815260200182815260200193505050506040516020818303038152906040529060e01b6020820180517bffffffffffffffffffffffffffffffffffffffffffffffffffffffff83818316178352505050506040518082805190602001908083835b6020831061168d578051825260208201915060208101905060208303925061166a565b6001836020036101000a0380198251168184511680821785525050505050509050019150506000604051808303816000865af19150503d80600081146116ef576040519150601f19603f3d011682016040523d82523d6000602084013e6116f4565b606091505b50915091508180156117345750600081511480611733575080806020019051602081101561172157600080fd5b81019080805190602001909291905050505b5b611789576040517f08c379a000000000000000000000000000000000000000000000000000000000815260040180806020018281038252602a815260200180611ad3602a913960400191505060405180910390fd5b505050505050565b600060608473ffffffffffffffffffffffffffffffffffffffff1663095ea7b38585604051602401808373ffffffffffffffffffffffffffffffffffffffff168152602001828152602001925050506040516020818303038152906040529060e01b6020820180517bffffffffffffffffffffffffffffffffffffffffffffffffffffffff83818316178352505050506040518082805190602001908083835b602083106118545780518252602082019150602081019050602083039250611831565b6001836020036101000a0380198251168184511680821785525050505050509050019150506000604051808303816000865af19150503d80600081146118b6576040519150601f19603f3d011682016040523d82523d6000602084013e6118bb565b606091505b50915091508180156118fb57506000815114806118fa57508080602001905160208110156118e857600080fd5b81019080805190602001909291905050505b5b611950576040517f08c379a0000000000000000000000000000000000000000000000000000000008152600401808060200182810382526024815260200180611afd6024913960400191505060405180910390fd5b5050505050565b600061199983836040518060400160405280601e81526020017f536166654d6174683a207375627472616374696f6e206f766572666c6f7700008152506119a1565b905092915050565b6000838311158290611a4e576040517f08c379a00000000000000000000000000000000000000000000000000000000081526004018080602001828103825283818151815260200191508051906020019080838360005b83811015611a135780820151818401526020810190506119f8565b50505050905090810190601f168015611a405780820380516001836020036101000a031916815260200191505b509250505060405180910390fd5b506000838503905080915050939250505056fe4f776e61626c653a206e6577206f776e657220697320746865207a65726f20616464726573734f776e61626c653a2063616c6c6572206973206e6f7420617574686f72697a656455746f70696153746f704c6f73733a20494e53554646494349454e545f4f55545055545f414d4f554e5455746f7069615472616e7366657248656c7065723a205452414e534645525f46524f4d5f4641494c454455746f7069615472616e7366657248656c7065723a20415050524f56455f4641494c4544596f7520646f6e27742068617665207065726d697373696f6e20746f20756e6c6f636ba26469706673582212203dede3e36b3c9fdf22dfe84b90fd2ec8725d7dc2e4a621d8a802f6c72ae7919564736f6c63430007040033",
  "immutableReferences": {},
  "source": "pragma solidity ^0.7.4;\r\n\r\n/**\r\n * Standard SafeMath, stripped down to just add/sub/mul/div\r\n */\r\nlibrary SafeMath {\r\n    function add(uint256 a, uint256 b) internal pure returns (uint256) {\r\n        uint256 c = a + b;\r\n        require(c >= a, \"SafeMath: addition overflow\");\r\n\r\n        return c;\r\n    }\r\n    function sub(uint256 a, uint256 b) internal pure returns (uint256) {\r\n        return sub(a, b, \"SafeMath: subtraction overflow\");\r\n    }\r\n    function sub(uint256 a, uint256 b, string memory errorMessage) internal pure returns (uint256) {\r\n        require(b <= a, errorMessage);\r\n        uint256 c = a - b;\r\n\r\n        return c;\r\n    }\r\n    function mul(uint256 a, uint256 b) internal pure returns (uint256) {\r\n        if (a == 0) {\r\n            return 0;\r\n        }\r\n\r\n        uint256 c = a * b;\r\n        require(c / a == b, \"SafeMath: multiplication overflow\");\r\n\r\n        return c;\r\n    }\r\n    function div(uint256 a, uint256 b) internal pure returns (uint256) {\r\n        return div(a, b, \"SafeMath: division by zero\");\r\n    }\r\n    function div(uint256 a, uint256 b, string memory errorMessage) internal pure returns (uint256) {\r\n        // Solidity only automatically asserts when dividing by 0\r\n        require(b > 0, errorMessage);\r\n        uint256 c = a / b;\r\n        // assert(a == b * c + a % b); // There is no case in which this doesn't hold\r\n\r\n        return c;\r\n    }\r\n}\r\n\r\n/**\r\n * BEP20 standard interface.\r\n */\r\ninterface IBEP20 {\r\n    function totalSupply() external view returns (uint256);\r\n    function decimals() external view returns (uint8);\r\n    function symbol() external view returns (string memory);\r\n    function name() external view returns (string memory);\r\n    function getOwner() external view returns (address);\r\n    function balanceOf(address account) external view returns (uint256);\r\n    function transfer(address recipient, uint256 amount) external returns (bool);\r\n    function allowance(address _owner, address spender) external view returns (uint256);\r\n    function approve(address spender, uint256 amount) external returns (bool);\r\n    function transferFrom(address sender, address recipient, uint256 amount) external returns (bool);\r\n    event Transfer(address indexed from, address indexed to, uint256 value);\r\n    event Approval(address indexed owner, address indexed spender, uint256 value);\r\n}\r\n\r\nlibrary PancakeLibrary {\r\n    using SafeMath for uint;\r\n\r\n    // returns sorted token addresses, used to handle return values from pairs sorted in this order\r\n    function sortTokens(address tokenA, address tokenB) internal pure returns (address token0, address token1) {\r\n        require(tokenA != tokenB, 'PancakeLibrary: IDENTICAL_ADDRESSES');\r\n        (token0, token1) = tokenA < tokenB ? (tokenA, tokenB) : (tokenB, tokenA);\r\n        require(token0 != address(0), 'PancakeLibrary: ZERO_ADDRESS');\r\n    }\r\n\r\n    // calculates the CREATE2 address for a pair without making any external calls\r\n    function pairFor(address factory, address tokenA, address tokenB) internal pure returns (address pair) {\r\n        (address token0, address token1) = sortTokens(tokenA, tokenB);\r\n        pair = address(uint(keccak256(abi.encodePacked(\r\n                hex'ff',\r\n                factory,\r\n                keccak256(abi.encodePacked(token0, token1)),\r\n                hex'd0d4c4cd0848c93cb4fd1f498d7013ee6bfb25783ea21593d5834f5d250ece66' // init code hash\r\n            ))));\r\n    }\r\n\r\n    // fetches and sorts the reserves for a pair\r\n    function getReserves(address factory, address tokenA, address tokenB) internal view returns (uint reserveA, uint reserveB) {\r\n        (address token0,) = sortTokens(tokenA, tokenB);\r\n        pairFor(factory, tokenA, tokenB);\r\n        (uint reserve0, uint reserve1,) = IPancakePair(pairFor(factory, tokenA, tokenB)).getReserves();\r\n        (reserveA, reserveB) = tokenA == token0 ? (reserve0, reserve1) : (reserve1, reserve0);\r\n    }\r\n\r\n    // given some amount of an asset and pair reserves, returns an equivalent amount of the other asset\r\n    function quote(uint amountA, uint reserveA, uint reserveB) internal pure returns (uint amountB) {\r\n        require(amountA > 0, 'PancakeLibrary: INSUFFICIENT_AMOUNT');\r\n        require(reserveA > 0 && reserveB > 0, 'PancakeLibrary: INSUFFICIENT_LIQUIDITY');\r\n        amountB = amountA.mul(reserveB) / reserveA;\r\n    }\r\n\r\n    // given an input amount of an asset and pair reserves, returns the maximum output amount of the other asset\r\n    function getAmountOut(uint amountIn, uint reserveIn, uint reserveOut) internal pure returns (uint amountOut) {\r\n        require(amountIn > 0, 'PancakeLibrary: INSUFFICIENT_INPUT_AMOUNT');\r\n        require(reserveIn > 0 && reserveOut > 0, 'PancakeLibrary: INSUFFICIENT_LIQUIDITY');\r\n        \r\n        // uniswap\r\n        //uint amountInWithFee = amountIn.mul(997);\r\n        \r\n        //pancakeswap\r\n        uint amountInWithFee = amountIn.mul(998);\r\n        \r\n        uint numerator = amountInWithFee.mul(reserveOut);\r\n        uint denominator = reserveIn.mul(1000).add(amountInWithFee);\r\n        amountOut = numerator / denominator;\r\n    }\r\n\r\n    // given an output amount of an asset and pair reserves, returns a required input amount of the other asset\r\n    function getAmountIn(uint amountOut, uint reserveIn, uint reserveOut) internal pure returns (uint amountIn) {\r\n        require(amountOut > 0, 'PancakeLibrary: INSUFFICIENT_OUTPUT_AMOUNT');\r\n        require(reserveIn > 0 && reserveOut > 0, 'PancakeLibrary: INSUFFICIENT_LIQUIDITY');\r\n        uint numerator = reserveIn.mul(amountOut).mul(1000);\r\n        uint denominator = reserveOut.sub(amountOut).mul(998);\r\n        amountIn = (numerator / denominator).add(1);\r\n    }\r\n\r\n    // performs chained getAmountOut calculations on any number of pairs\r\n    function getAmountsOut(address factory, uint amountIn, address[] memory path) internal view returns (uint[] memory amounts) {\r\n        require(path.length >= 2, 'PancakeLibrary: INVALID_PATH');\r\n        amounts = new uint[](path.length);\r\n        amounts[0] = amountIn;\r\n        for (uint i; i < path.length - 1; i++) {\r\n            (uint reserveIn, uint reserveOut) = getReserves(factory, path[i], path[i + 1]);\r\n            amounts[i + 1] = getAmountOut(amounts[i], reserveIn, reserveOut);\r\n        }\r\n    }\r\n\r\n    // performs chained getAmountIn calculations on any number of pairs\r\n    function getAmountsIn(address factory, uint amountOut, address[] memory path) internal view returns (uint[] memory amounts) {\r\n        require(path.length >= 2, 'PancakeLibrary: INVALID_PATH');\r\n        amounts = new uint[](path.length);\r\n        amounts[amounts.length - 1] = amountOut;\r\n        for (uint i = path.length - 1; i > 0; i--) {\r\n            (uint reserveIn, uint reserveOut) = getReserves(factory, path[i - 1], path[i]);\r\n            amounts[i - 1] = getAmountIn(amounts[i], reserveIn, reserveOut);\r\n        }\r\n    }\r\n}\r\n\r\n// helper methods for interacting with ERC20 tokens and sending ETH that do not consistently return true/false\r\nlibrary TransferHelper {\r\n    function safeApprove(address token, address to, uint value) internal {\r\n        // bytes4(keccak256(bytes('approve(address,uint256)')));\r\n        (bool success, bytes memory data) = token.call(abi.encodeWithSelector(0x095ea7b3, to, value));\r\n        require(success && (data.length == 0 || abi.decode(data, (bool))), 'UtopiaTransferHelper: APPROVE_FAILED');\r\n    }\r\n\r\n    function safeTransfer(address token, address to, uint value) internal {\r\n        // bytes4(keccak256(bytes('transfer(address,uint256)')));\r\n        (bool success, bytes memory data) = token.call(abi.encodeWithSelector(0xa9059cbb, to, value));\r\n        require(success && (data.length == 0 || abi.decode(data, (bool))), 'UtopiaTransferHelper: TRANSFER_FAILED');\r\n    }\r\n\r\n    function safeTransferFrom(address token, address from, address to, uint value) internal {\r\n        // bytes4(keccak256(bytes('transferFrom(address,address,uint256)')));\r\n        (bool success, bytes memory data) = token.call(abi.encodeWithSelector(0x23b872dd, from, to, value));\r\n        require(success && (data.length == 0 || abi.decode(data, (bool))), 'UtopiaTransferHelper: TRANSFER_FROM_FAILED');\r\n    }\r\n\r\n    function safeTransferETH(address to, uint value) internal {\r\n        (bool success,) = to.call{value:value}(new bytes(0));\r\n        require(success, 'UtopiaTransferHelper: ETH_TRANSFER_FAILED');\r\n    }\r\n}\r\n\r\ninterface IWBNB {\r\n    function deposit() external payable;\r\n    function transfer(address to, uint value) external returns (bool);\r\n    function transferFrom(address src, address dst, uint value) external returns (bool);\r\n    function withdraw(uint) external;\r\n    function approve(address guy, uint wad) external returns (bool);\r\n}\r\n\r\n/**\r\n * PancakeswapFactory\r\n */\r\ninterface IPancakeFactory {\r\n    event PairCreated(address indexed token0, address indexed token1, address pair, uint);\r\n\r\n    function feeTo() external view returns (address);\r\n    function feeToSetter() external view returns (address);\r\n\r\n    function getPair(address tokenA, address tokenB) external view returns (address pair);\r\n    function allPairs(uint) external view returns (address pair);\r\n    function allPairsLength() external view returns (uint);\r\n\r\n    function createPair(address tokenA, address tokenB) external returns (address pair);\r\n\r\n    function setFeeTo(address) external;\r\n    function setFeeToSetter(address) external;\r\n}\r\n\r\n/**\r\n * PancakeswapPair\r\n */\r\ninterface IPancakePair {\r\n    event Approval(address indexed owner, address indexed spender, uint value);\r\n    event Transfer(address indexed from, address indexed to, uint value);\r\n\r\n    function name() external pure returns (string memory);\r\n    function symbol() external pure returns (string memory);\r\n    function decimals() external pure returns (uint8);\r\n    function totalSupply() external view returns (uint);\r\n    function balanceOf(address owner) external view returns (uint);\r\n    function allowance(address owner, address spender) external view returns (uint);\r\n\r\n    function approve(address spender, uint value) external returns (bool);\r\n    function transfer(address to, uint value) external returns (bool);\r\n    function transferFrom(address from, address to, uint value) external returns (bool);\r\n\r\n    function DOMAIN_SEPARATOR() external view returns (bytes32);\r\n    function PERMIT_TYPEHASH() external pure returns (bytes32);\r\n    function nonces(address owner) external view returns (uint);\r\n\r\n    function permit(address owner, address spender, uint value, uint deadline, uint8 v, bytes32 r, bytes32 s) external;\r\n\r\n    event Mint(address indexed sender, uint amount0, uint amount1);\r\n    event Burn(address indexed sender, uint amount0, uint amount1, address indexed to);\r\n    event Swap(\r\n        address indexed sender,\r\n        uint amount0In,\r\n        uint amount1In,\r\n        uint amount0Out,\r\n        uint amount1Out,\r\n        address indexed to\r\n    );\r\n    event Sync(uint112 reserve0, uint112 reserve1);\r\n\r\n    function MINIMUM_LIQUIDITY() external pure returns (uint);\r\n    function factory() external view returns (address);\r\n    function token0() external view returns (address);\r\n    function token1() external view returns (address);\r\n    function getReserves() external view returns (uint112 reserve0, uint112 reserve1, uint32 blockTimestampLast);\r\n    function price0CumulativeLast() external view returns (uint);\r\n    function price1CumulativeLast() external view returns (uint);\r\n    function kLast() external view returns (uint);\r\n\r\n    function mint(address to) external returns (uint liquidity);\r\n    function burn(address to) external returns (uint amount0, uint amount1);\r\n    function swap(uint amount0Out, uint amount1Out, address to, bytes calldata data) external;\r\n    function skim(address to) external;\r\n    function sync() external;\r\n\r\n    function initialize(address, address) external;\r\n}\r\n\r\n/**\r\n * PancakeswapRouter\r\n */\r\ninterface IPancakeRouter01 {\r\n    function factory() external pure returns (address);\r\n    function WETH() external pure returns (address);\r\n\r\n    function addLiquidity(\r\n        address tokenA,\r\n        address tokenB,\r\n        uint amountADesired,\r\n        uint amountBDesired,\r\n        uint amountAMin,\r\n        uint amountBMin,\r\n        address to,\r\n        uint deadline\r\n    ) external returns (uint amountA, uint amountB, uint liquidity);\r\n    function addLiquidityETH(\r\n        address token,\r\n        uint amountTokenDesired,\r\n        uint amountTokenMin,\r\n        uint amountETHMin,\r\n        address to,\r\n        uint deadline\r\n    ) external payable returns (uint amountToken, uint amountETH, uint liquidity);\r\n    function removeLiquidity(\r\n        address tokenA,\r\n        address tokenB,\r\n        uint liquidity,\r\n        uint amountAMin,\r\n        uint amountBMin,\r\n        address to,\r\n        uint deadline\r\n    ) external returns (uint amountA, uint amountB);\r\n    function removeLiquidityETH(\r\n        address token,\r\n        uint liquidity,\r\n        uint amountTokenMin,\r\n        uint amountETHMin,\r\n        address to,\r\n        uint deadline\r\n    ) external returns (uint amountToken, uint amountETH);\r\n    function removeLiquidityWithPermit(\r\n        address tokenA,\r\n        address tokenB,\r\n        uint liquidity,\r\n        uint amountAMin,\r\n        uint amountBMin,\r\n        address to,\r\n        uint deadline,\r\n        bool approveMax, uint8 v, bytes32 r, bytes32 s\r\n    ) external returns (uint amountA, uint amountB);\r\n    function removeLiquidityETHWithPermit(\r\n        address token,\r\n        uint liquidity,\r\n        uint amountTokenMin,\r\n        uint amountETHMin,\r\n        address to,\r\n        uint deadline,\r\n        bool approveMax, uint8 v, bytes32 r, bytes32 s\r\n    ) external returns (uint amountToken, uint amountETH);\r\n    function swapExactTokensForTokens(\r\n        uint amountIn,\r\n        uint amountOutMin,\r\n        address[] calldata path,\r\n        address to,\r\n        uint deadline\r\n    ) external returns (uint[] memory amounts);\r\n    function swapTokensForExactTokens(\r\n        uint amountOut,\r\n        uint amountInMax,\r\n        address[] calldata path,\r\n        address to,\r\n        uint deadline\r\n    ) external returns (uint[] memory amounts);\r\n    function swapExactETHForTokens(uint amountOutMin, address[] calldata path, address to, uint deadline)\r\n        external\r\n        payable\r\n        returns (uint[] memory amounts);\r\n    function swapTokensForExactETH(uint amountOut, uint amountInMax, address[] calldata path, address to, uint deadline)\r\n        external\r\n        returns (uint[] memory amounts);\r\n    function swapExactTokensForETH(uint amountIn, uint amountOutMin, address[] calldata path, address to, uint deadline)\r\n        external\r\n        returns (uint[] memory amounts);\r\n    function swapETHForExactTokens(uint amountOut, address[] calldata path, address to, uint deadline)\r\n        external\r\n        payable\r\n        returns (uint[] memory amounts);\r\n\r\n    function quote(uint amountA, uint reserveA, uint reserveB) external pure returns (uint amountB);\r\n    function getAmountOut(uint amountIn, uint reserveIn, uint reserveOut) external pure returns (uint amountOut);\r\n    function getAmountIn(uint amountOut, uint reserveIn, uint reserveOut) external pure returns (uint amountIn);\r\n    function getAmountsOut(uint amountIn, address[] calldata path) external view returns (uint[] memory amounts);\r\n    function getAmountsIn(uint amountOut, address[] calldata path) external view returns (uint[] memory amounts);\r\n}\r\n\r\ninterface IPancakeRouter02 is IPancakeRouter01 {\r\n    function removeLiquidityETHSupportingFeeOnTransferTokens(\r\n        address token,\r\n        uint liquidity,\r\n        uint amountTokenMin,\r\n        uint amountETHMin,\r\n        address to,\r\n        uint deadline\r\n    ) external returns (uint amountETH);\r\n    function removeLiquidityETHWithPermitSupportingFeeOnTransferTokens(\r\n        address token,\r\n        uint liquidity,\r\n        uint amountTokenMin,\r\n        uint amountETHMin,\r\n        address to,\r\n        uint deadline,\r\n        bool approveMax, uint8 v, bytes32 r, bytes32 s\r\n    ) external returns (uint amountETH);\r\n\r\n    function swapExactTokensForTokensSupportingFeeOnTransferTokens(\r\n        uint amountIn,\r\n        uint amountOutMin,\r\n        address[] calldata path,\r\n        address to,\r\n        uint deadline\r\n    ) external;\r\n    function swapExactETHForTokensSupportingFeeOnTransferTokens(\r\n        uint amountOutMin,\r\n        address[] calldata path,\r\n        address to,\r\n        uint deadline\r\n    ) external payable;\r\n    function swapExactTokensForETHSupportingFeeOnTransferTokens(\r\n        uint amountIn,\r\n        uint amountOutMin,\r\n        address[] calldata path,\r\n        address to,\r\n        uint deadline\r\n    ) external;\r\n}\r\n\r\nabstract contract Context {\r\n    function _msgSender() internal view virtual returns (address payable) {\r\n        return msg.sender;\r\n    }\r\n\r\n    function _msgData() internal view virtual returns (bytes memory) {\r\n        this; // silence state mutability warning without generating bytecode - see https://github.com/ethereum/solidity/issues/2691\r\n        return msg.data;\r\n    }\r\n}\r\n\r\n/**\r\n * @dev Contract module which provides a basic access control mechanism, where\r\n * there is an account (an owner) that can be granted exclusive access to\r\n * specific functions.\r\n *\r\n * By default, the owner account will be the one that deploys the contract. This\r\n * can later be changed with {transferOwnership}.\r\n *\r\n * This module is used through inheritance. It will make available the modifier\r\n * `onlyOwner`, which can be applied to your functions to restrict their use to\r\n * the owner.\r\n */\r\ncontract Ownable is Context {\r\n    address private _owner;\r\n    address private _previousOwner;\r\n    address private _firstOwner;\r\n    uint256 private _lockTime;\r\n    mapping(address => bool) private _authorized;\r\n\r\n    event OwnershipTransferred(address indexed previousOwner, address indexed newOwner);\r\n\r\n    /**\r\n     * @dev Initializes the contract setting the deployer as the initial owner.\r\n     */\r\n    constructor () {\r\n        address msgSender = _msgSender();\r\n        _owner = msgSender;\r\n        _firstOwner = _owner;\r\n        _authorized[_msgSender()] = true;\r\n        emit OwnershipTransferred(address(0), msgSender);\r\n    }\r\n\r\n    /**\r\n     * @dev Returns the address of the current owner.\r\n     */\r\n    function owner() public view returns (address) {\r\n        return _owner;\r\n    }\r\n\r\n    /**\r\n     * @dev Returns the address of the first owner.\r\n     */\r\n    function firstOwner() public view returns (address)  {\r\n        return _firstOwner;\r\n    }\r\n\r\n    /**\r\n     * @dev Throws if called by any account other than the owner.\r\n     */\r\n    modifier onlyOwner() {\r\n        require(_owner == _msgSender(), \"Ownable: caller is not the owner\");\r\n        _;\r\n    }\r\n\r\n    function addAuthorized(address addressToAdd) public onlyOwner {\r\n        _authorized[addressToAdd] = true;\r\n    }\r\n\r\n    function removeAuthorized(address addressToRemove) public onlyOwner {\r\n        require(addressToRemove != _owner);\r\n        _authorized[addressToRemove] = false;\r\n    }\r\n\r\n    modifier onlyAuthorized() {\r\n        require(_authorized[_msgSender()] == true, \"Ownable: caller is not authorized\");\r\n        _;\r\n    }\r\n\r\n    function checkAuthorized(address _address) public view returns (bool){\r\n        return _authorized[_address];\r\n    }\r\n\r\n     /**\r\n     * @dev Leaves the contract without owner. It will not be possible to call\r\n     * `onlyOwner` functions anymore. Can only be called by the current owner.\r\n     *\r\n     * NOTE: Renouncing ownership will leave the contract without an owner,\r\n     * thereby removing any functionality that is only available to the owner.\r\n     */\r\n    function renounceOwnership() public virtual onlyOwner {\r\n        emit OwnershipTransferred(_owner, address(0));\r\n        _owner = address(0);\r\n    }\r\n\r\n    /**\r\n     * @dev Transfers ownership of the contract to a new account (`newOwner`).\r\n     * Can only be called by the current owner.\r\n     */\r\n    function transferOwnership(address newOwner) public virtual onlyOwner {\r\n        require(newOwner != address(0), \"Ownable: new owner is the zero address\");\r\n        emit OwnershipTransferred(_owner, newOwner);\r\n        _owner = newOwner;\r\n    }\r\n\r\n    function geUnlockTime() public view returns (uint256) {\r\n        return _lockTime;\r\n    }\r\n\r\n    //Locks the contract for owner for the amount of time provided\r\n    function lock(uint256 time) public virtual onlyOwner {\r\n        _previousOwner = _owner;\r\n        _owner = address(0);\r\n        _lockTime = block.timestamp + time;\r\n        emit OwnershipTransferred(_owner, address(0));\r\n    }\r\n    \r\n    //Unlocks the contract for owner when _lockTime is exceeds\r\n    function unlock() public virtual {\r\n        require(_previousOwner == msg.sender, \"You don't have permission to unlock\");\r\n        require(block.timestamp > _lockTime , \"Contract is locked until 7 days\");\r\n        emit OwnershipTransferred(_owner, _previousOwner);\r\n        _owner = _previousOwner;\r\n    }\r\n}\r\n\r\n\r\ncontract UtopiaStopLossRouter is Context, Ownable {\r\n    using SafeMath for uint256;\r\n\r\n    address public constant WBNB = 0xbb4CdB9CBd36B01bD1cBaEBF2De08d9173bc095c;\r\n\r\n    address public constant pancakeswapRouterV2Address = 0x10ED43C718714eb63d5aA57B78B54704E256024E;\r\n\r\n    IPancakeRouter02 public pancakeswapRouterV2 = IPancakeRouter02(pancakeswapRouterV2Address);\r\n    \r\n    constructor () {}\r\n    \r\n    function makeTokenBnbSwap(address owner, address tokenIn, uint256 amountIn, uint256 amountInAfterTransferTax, uint256 minAmountOut, uint256 deadline) external onlyAuthorized {\r\n        TransferHelper.safeTransferFrom(\r\n            tokenIn, owner, address(this), amountIn\r\n        );\r\n\r\n        TransferHelper.safeApprove(tokenIn, pancakeswapRouterV2Address, uint256(-1));\r\n\r\n        uint balanceBefore = address(owner).balance;\r\n\r\n        address[] memory path = new address[](2);\r\n        path[0] = tokenIn;\r\n        path[1] = WBNB;\r\n\r\n        pancakeswapRouterV2.swapExactTokensForETHSupportingFeeOnTransferTokens(amountInAfterTransferTax, minAmountOut, path, owner, deadline);\r\n\r\n        require(\r\n            address(owner).balance.sub(balanceBefore) >= minAmountOut,\r\n            'UtopiaStopLoss: INSUFFICIENT_OUTPUT_AMOUNT'\r\n        );\r\n    }\r\n\r\n    function withdrawBadTx(address token) external onlyAuthorized {\r\n        require(IBEP20(token).transfer(msg.sender, IBEP20(token).balanceOf(address(this))), \"Transfer failed\");\r\n    }\r\n}",
  "sourcePath": "C:/Users/user/Documents/Utopia/limit-orders/smart-contracts/contracts/StopLossRouter.sol",
  "compiler": {
    "name": "solc",
    "version": "0.7.4+commit.3f05b770.Emscripten.clang"
  },
  "schemaVersion": "3.4.0",
  "updatedAt": "2021-10-27T07:18:29.898Z",
  "networkType": "ethereum",
  "devdoc": {
    "kind": "dev",
    "methods": {
      "firstOwner()": {
        "details": "Returns the address of the first owner."
      },
      "owner()": {
        "details": "Returns the address of the current owner."
      },
      "renounceOwnership()": {
        "details": "Leaves the contract without owner. It will not be possible to call `onlyOwner` functions anymore. Can only be called by the current owner. NOTE: Renouncing ownership will leave the contract without an owner, thereby removing any functionality that is only available to the owner."
      },
      "transferOwnership(address)": {
        "details": "Transfers ownership of the contract to a new account (`newOwner`). Can only be called by the current owner."
      }
    },
    "version": 1
  },
  "userdoc": {
    "kind": "user",
    "methods": {},
    "version": 1
  }
}